:020000005F2B74
:10000800FF00030E83018316C5000A08C4008A0195
:1000180070088312A1007D08A0008B1C15281014FD
:100028008B100C1C23288514A630FD00FD0B1A2804
:100038000000851063308F00C0308E000C100B1D3F
:100048003A28D50A55080A3A031D372886192F2851
:100058008316C31143158312061935288316C31551
:1000680043118312D5013C3081000B112108F000A7
:100078002008FD00831644088A00450E8300FF0E01
:040088007F0E0900DE
:0C008C0000000000000000000000080060
:10009800243083120313FC00B530FD00FD0B5228F9
:0A00A800FC0B5228000000000800C5
:0E00B200533083120313FD00FD0B5D28080080
:1000C00083160313CD1B67288312871369288312B5
:1000D000871783164D1B6F2883120713712883120D
:1000E00007178316CD1A772883128712792883126F
:1000F000871683164D1A7F288312071281288312D0
:1001000007166F18852807158628071187154620BA
:1001100087118316CD198F28831287139128831294
:10012000871783164D19972883120713992883126E
:1001300007178316CD189F2883128712A1288312D0
:10014000871683164D18A72883120712A928831231
:1001500007166F18AD280715AE280711871546201A
:0E01600087116F1CB5284C20B62859200800C6
:10016E00C928803083160313CA00DC28C030CA00A9
:10017E00DC289430CA00DC28D430CA00DC28803059
:10018E00CA00DC28831603134A08013A0319B8285B
:10019E004A08023A0319BD284A08033A0319C0282F
:1001AE004A08043A0319C328C6284B03F0004A082C
:1001BE00F0077008CA0083126F1470088316CD0002
:1001CE0060206F1083164C08CD0060206F1408005D
:0E01DE008316031342088A00410882000800BD
:1001EC00831203136F1083164A08CD0060206F141E
:0201FC000800F9
:1001FE0083160313431D4529C31945290130CA002F
:10020E000130CB002030CC00B72001308316CA005D
:10021E001030CB002030CC00B72001308316CA003E
:10022E000330CB005330CC00B72069308316CA00A0
:10023E00F6206E308316CA00F62063308316CA008D
:10024E00F6203A308316CA00F62020308316CA00F4
:10025E00F62020308316CA00F62020308316CA00FE
:10026E00F62020308316CA00F62002308316CA000C
:0E027E000130CB003530CC00B720FF2808003F
:10028C0083160313431D8C29C3198C290130CA0012
:10029C000130CB002030CC00B72001308316CA00CF
:1002AC001030CB002030CC00B72001308316CA00B0
:1002BC000330CB004330CC00B7206F308316CA001C
:1002CC00F6206E308316CA00F62074308316CA00EE
:1002DC00F62072308316CA00F6206F308316CA00DF
:1002EC00F6206C308316CA00F62065308316CA00DF
:1002FC00F6203A308316CA00F62002308316CA0064
:0E030C000130CB003130CC00B720462908006C
:10031A0083160313431DD729C319D7290130CA00ED
:10032A000130CB002030CC00B72001308316CA0040
:10033A001030CB002030CC00B72001308316CA0021
:10034A000330CB005430CC00B72069308316CA0082
:10035A00F6206D308316CA00F62065308316CA006F
:10036A00F62072308316CA00F6203A308316CA0085
:10037A00F62020308316CA00F62020308316CA00E1
:10038A00F62020308316CA00F62020308316CA00D1
:10039A00F62002308316CA000130CB003430CC007C
:0603AA00B7208D290800B8
:1003B00083160313431D1E2AC3191E2A0130CA00C7
:1003C0000130CB002030CC00B72001308316CA00AA
:1003D0001030CB002030CC00B72001308316CA008B
:1003E0000330CB004630CC00B72061308316CA0002
:1003F000F62064308316CA00F62065308316CA00E2
:10040000F6203A308316CA00F62020308316CA0040
:10041000F62020308316CA00F62020308316CA004A
:10042000F62020308316CA00F62002308316CA0058
:0E0430000130CB003230CC00B720D8290800B4
:10043E00312A803083160313C600442AC030C6000A
:10044E00442A9430C600442AD430C600442A803050
:10045E00C600442A831603134608013A0319202ABC
:10046E004608023A0319252A4608033A0319282A90
:10047E004608043A03192B2A2E2A4703F000460891
:10048E00F0077008C6007008CD0060206F1083164C
:10049E00C901490848078400000803195F2A490862
:1004AE00480784000008CA00F6208316C90A502A9D
:0604BE0083126F14080018
:1004C40083120313861B682A831643148312061BA4
:1004D4006D2A8316C3148312861F782A8316431C3D
:1004E400782A43108312E70A831643168312061FE1
:1004F400832A8316C31C832AC3108312E70383163B
:10050400431683126708053C03188A2A0130E70062
:0E051400013067020318902A0530E700080046
:1005220083160313431DDB2AC319DB2A0130CA00D9
:100532000130CB002030CC00B72001308316CA0036
:100542001030CB002030CC00B72001308316CA0017
:100552000330CB004630CC00B7206C308316CA0083
:10056200F62061308316CA00F62073308316CA0063
:10057200F62068308316CA00F6203A308316CA0085
:10058200F62020308316CA00F62020308316CA00D7
:10059200F62020308316CA00F62020308316CA00C7
:1005A200F62002308316CA000130CB003330CC0073
:0605B200B720912A0800A9
:1005B800EF208A110A128000840AC10A0319C20AAC
:0805C800F003031DDC2A08000A
:1005D000F0308B0087308316031381008312900163
:1005E00083160C14FE3083128C0563308F00C030EC
:1005F0008E00073083169C009D131D133C30831220
:1006000081001F100F3083169F00FD308500FD30E4
:100610008600F030870083128501FF308600870155
:020620000800D0
:100622008316031387110711071287120713871303
:1006320083128711071187130713871207124C20A1
:100642004C204C20871607168715462087114C2010
:100652008715462087114C208715462087114C208C
:1006620007128715462087114C20871546208711CF
:10067200871287178715462087114C208713071684
:1006820087154620871107128715462087114C20AF
:1006920087154620871107168715462087114C209B
:1006A200071287154620871187170717871607161F
:0C06B2008715462087114C206F140800AB
:1006BE004425831603134311C3114310C310431271
:1006CE00E822112301308316CD0060200C308316F2
:1006DE00CD00602001308316C6000630C70068309A
:1006EE00C8001F2202308316C6000230C700B13088
:1006FE00C8001F221A30FB005E30FC006E30FD0079
:10070E00FD0B872BFC0B872BFB0B872B000001307F
:10071E008316CD0060206222B92C8316431E9C2BBB
:10072E000130CD006020831643120130CA00013023
:10073E00CB003C30CC00B72001308316CA001030FD
:10074E00CB003E30CC00B72001308316CA000330F8
:10075E00CB004330CC00B7206F308316CA00F62092
:10076E006E308316CA00F62074308316CA00F62047
:10077E0072308316CA00F6206F308316CA00F62038
:10078E006C308316CA00F62065308316CA00F62038
:10079E0002308316C6000130C700A030C8001F22E9
:1007AE004621CF2C83160313431EE22B0130CD00BE
:1007BE006020831643120130CA000130CB003C305A
:1007CE00CC00B72001308316CA001030CB003E306B
:1007DE00CC00B72001308316CA000330CB00463060
:1007EE00CC00B72061308316CA00F6206430831621
:1007FE00CA00F62065308316CA00F6200230831632
:10080E00C6000130C7005630C8001F22D821CF2C99
:10081E0083160313431E182C0130CD00602083165F
:10082E0043120130CA000130CB003C30CC00B7205F
:10083E0001308316CA001030CB003E30CC00B720FA
:10084E0001308316CA000330CB004630CC00B720EF
:10085E006C308316CA00F62061308316CA00F6206B
:10086E0073308316CA00F62068308316CA00F6204D
:10087E0002308316C6000130C7003330C8001F2275
:10088E009122CF2C83160313431E522C0130CD0020
:10089E006020831643120130CA000130CB003C3079
:1008AE00CC00B72001308316CA001030CB003E308A
:1008BE00CC00B72001308316CA000330CB00543071
:1008CE00CC00B72069308316CA00F6206D3083162F
:1008DE00CA00F62065308316CA00F62072308316E1
:1008EE00CA00F62002308316C6000130C70022303F
:1008FE00C8001F228D21CF2C83160313431E8C2C70
:10090E000130CD006020831643120130CA00013041
:10091E00CB003C30CC00B72001308316CA0010301B
:10092E00CB003E30CC00B72001308316CA00033016
:10093E00CB005330CC00B72069308316CA00F620A6
:10094E006E308316CA00F62063308316CA00F62076
:10095E0002308316C6000130C7004430C8001F2283
:10096E00FF20CF2C831203136708013A0319942B2F
:10097E006708023A0319D92B6708033A03190F2C9B
:10098E006708043A0319492C6708053A0319832CA2
:04099E00922BD02C9C
:100A8800223084004D3083120313F000D6308316D1
:100A9800C1000430C200DC22A03084002130F00004
:0E0AA80023308316C1000530C200DC22080096
:1009AC00203420342034203420342034203420349B
:1009BC00203420342034203420342034203420348B
:0209CC000034F5
:1009CE002034203420342034203420342034203479
:1009DE002034203420342034203420342034203469
:0209EE000034D3
:1009F0002034203420342034203420342034203457
:100A00002034203420342034203420342034203446
:020A10000034B0
:020A12000034AE
:100A14002034203420342034203420342034203432
:100A24002034203420342034203420342034203422
:020A340000348C
:020A3600013489
:0E0A3800443469346D346D34653472340034E6
:100A46002034203420342034203420342034203400
:100A560020342034203420342034203420342034F0
:020A660000345A
:100A68004D346934633472346F3463346F346E34A4
:100A7800743472346F346C34613464346F340034D9
:02400E004A2F37
:00000001FF
